{
  "_format": "hh-sol-artifact-1",
  "contractName": "CoinFlip",
  "sourceName": "contracts/Lock.sol",
  "abi": [
    {
      "inputs": [],
      "stateMutability": "nonpayable",
      "type": "constructor"
    },
    {
      "inputs": [
        {
          "internalType": "bool",
          "name": "_guess",
          "type": "bool"
        }
      ],
      "name": "flip",
      "outputs": [],
      "stateMutability": "payable",
      "type": "function"
    },
    {
      "inputs": [],
      "name": "owner",
      "outputs": [
        {
          "internalType": "address",
          "name": "",
          "type": "address"
        }
      ],
      "stateMutability": "view",
      "type": "function"
    },
    {
      "inputs": [],
      "name": "withdraw",
      "outputs": [],
      "stateMutability": "nonpayable",
      "type": "function"
    },
    {
      "stateMutability": "payable",
      "type": "receive"
    }
  ],
  "bytecode": "0x608060405234801561001057600080fd5b50336000806101000a81548173ffffffffffffffffffffffffffffffffffffffff021916908373ffffffffffffffffffffffffffffffffffffffff16021790555061057a806100606000396000f3fe6080604052600436106100385760003560e01c80631d263f67146100445780633ccfd60b146100605780638da5cb5b146100775761003f565b3661003f57005b600080fd5b61005e6004803603810190610059919061028c565b6100a2565b005b34801561006c57600080fd5b5061007561015c565b005b34801561008357600080fd5b5061008c610253565b6040516100999190610390565b60405180910390f35b600034116100e5576040517f08c379a00000000000000000000000000000000000000000000000000000000081526004016100dc906103cb565b60405180910390fd5b6000806002426100f5919061049e565b1490508015158215151415610158573373ffffffffffffffffffffffffffffffffffffffff166108fc60023461012b91906103fc565b9081150290604051600060405180830381858888f19350505050158015610156573d6000803e3d6000fd5b505b5050565b60008054906101000a900473ffffffffffffffffffffffffffffffffffffffff1673ffffffffffffffffffffffffffffffffffffffff163373ffffffffffffffffffffffffffffffffffffffff16146101ea576040517f08c379a00000000000000000000000000000000000000000000000000000000081526004016101e1906103ab565b60405180910390fd5b60008054906101000a900473ffffffffffffffffffffffffffffffffffffffff1673ffffffffffffffffffffffffffffffffffffffff166108fc479081150290604051600060405180830381858888f19350505050158015610250573d6000803e3d6000fd5b50565b60008054906101000a900473ffffffffffffffffffffffffffffffffffffffff1681565b6000813590506102868161052d565b92915050565b60006020828403121561029e57600080fd5b60006102ac84828501610277565b91505092915050565b6102be81610456565b82525050565b60006102d16021836103eb565b91507f4f6e6c7920746865206f776e65722063616e2077697468647261772066756e6460008301527f73000000000000000000000000000000000000000000000000000000000000006020830152604082019050919050565b60006103376021836103eb565b91507f596f75206e65656420746f2073656e6420736f6d6520424e4220746f20706c6160008301527f79000000000000000000000000000000000000000000000000000000000000006020830152604082019050919050565b60006020820190506103a560008301846102b5565b92915050565b600060208201905081810360008301526103c4816102c4565b9050919050565b600060208201905081810360008301526103e48161032a565b9050919050565b600082825260208201905092915050565b600061040782610494565b915061041283610494565b9250817fffffffffffffffffffffffffffffffffffffffffffffffffffffffffffffffff048311821515161561044b5761044a6104cf565b5b828202905092915050565b600061046182610474565b9050919050565b60008115159050919050565b600073ffffffffffffffffffffffffffffffffffffffff82169050919050565b6000819050919050565b60006104a982610494565b91506104b483610494565b9250826104c4576104c36104fe565b5b828206905092915050565b7f4e487b7100000000000000000000000000000000000000000000000000000000600052601160045260246000fd5b7f4e487b7100000000000000000000000000000000000000000000000000000000600052601260045260246000fd5b61053681610468565b811461054157600080fd5b5056fea26469706673582212200180d025b4b8bcf9d90a098a66e7798872b15eead7ffb2dcedae84d8b0b9249e64736f6c63430008000033",
  "linkReferences": {},
  "deployedLinkReferences": {}
}